{
  "contractName": "GamePlayTest",
  "abi": [
    {
      "inputs": [
        {
          "internalType": "uint256",
          "name": "_entryPrice",
          "type": "uint256"
        }
      ],
      "stateMutability": "nonpayable",
      "type": "constructor"
    },
    {
      "inputs": [],
      "name": "active_houses",
      "outputs": [
        {
          "internalType": "uint256",
          "name": "",
          "type": "uint256"
        }
      ],
      "stateMutability": "view",
      "type": "function",
      "constant": true
    },
    {
      "inputs": [],
      "name": "completed_houses",
      "outputs": [
        {
          "internalType": "uint256",
          "name": "",
          "type": "uint256"
        }
      ],
      "stateMutability": "view",
      "type": "function",
      "constant": true
    },
    {
      "inputs": [],
      "name": "contractOwner",
      "outputs": [
        {
          "internalType": "address payable",
          "name": "",
          "type": "address"
        }
      ],
      "stateMutability": "view",
      "type": "function",
      "constant": true
    },
    {
      "inputs": [],
      "name": "entryPrice",
      "outputs": [
        {
          "internalType": "uint256",
          "name": "",
          "type": "uint256"
        }
      ],
      "stateMutability": "view",
      "type": "function",
      "constant": true
    },
    {
      "inputs": [],
      "name": "totalPlayHouses",
      "outputs": [
        {
          "internalType": "uint256",
          "name": "",
          "type": "uint256"
        }
      ],
      "stateMutability": "view",
      "type": "function",
      "constant": true
    },
    {
      "inputs": [
        {
          "internalType": "uint256",
          "name": "_hid",
          "type": "uint256"
        }
      ],
      "name": "getApprovalCount",
      "outputs": [
        {
          "internalType": "uint256",
          "name": "",
          "type": "uint256"
        }
      ],
      "stateMutability": "view",
      "type": "function",
      "constant": true
    },
    {
      "inputs": [
        {
          "internalType": "string",
          "name": "_name",
          "type": "string"
        },
        {
          "internalType": "string",
          "name": "_description",
          "type": "string"
        },
        {
          "internalType": "uint256",
          "name": "_bettingPrice",
          "type": "uint256"
        }
      ],
      "name": "createPlayHouse",
      "outputs": [],
      "stateMutability": "payable",
      "type": "function",
      "payable": true
    },
    {
      "inputs": [
        {
          "internalType": "uint256",
          "name": "playHouseId",
          "type": "uint256"
        }
      ],
      "name": "getPlayHouseDatas",
      "outputs": [
        {
          "internalType": "string",
          "name": "_name",
          "type": "string"
        },
        {
          "internalType": "string",
          "name": "_description",
          "type": "string"
        },
        {
          "internalType": "address",
          "name": "_creator",
          "type": "address"
        },
        {
          "internalType": "uint256",
          "name": "_poolPrice",
          "type": "uint256"
        },
        {
          "internalType": "bool",
          "name": "isActive",
          "type": "bool"
        },
        {
          "internalType": "uint256",
          "name": "bettingPrice",
          "type": "uint256"
        },
        {
          "internalType": "address[]",
          "name": "players",
          "type": "address[]"
        },
        {
          "internalType": "address",
          "name": "_winner",
          "type": "address"
        }
      ],
      "stateMutability": "view",
      "type": "function",
      "constant": true
    },
    {
      "inputs": [
        {
          "internalType": "uint256",
          "name": "_playHouseId",
          "type": "uint256"
        }
      ],
      "name": "entry",
      "outputs": [],
      "stateMutability": "payable",
      "type": "function",
      "payable": true
    },
    {
      "inputs": [],
      "name": "withdraw",
      "outputs": [],
      "stateMutability": "payable",
      "type": "function",
      "payable": true
    },
    {
      "inputs": [],
      "name": "getContractBalance",
      "outputs": [
        {
          "internalType": "uint256",
          "name": "",
          "type": "uint256"
        }
      ],
      "stateMutability": "view",
      "type": "function",
      "constant": true
    },
    {
      "inputs": [
        {
          "internalType": "uint256",
          "name": "_playhouseId",
          "type": "uint256"
        }
      ],
      "name": "cancelGame",
      "outputs": [],
      "stateMutability": "payable",
      "type": "function",
      "payable": true
    },
    {
      "inputs": [
        {
          "internalType": "uint256",
          "name": "_playHouseId",
          "type": "uint256"
        }
      ],
      "name": "getGasUsed",
      "outputs": [
        {
          "internalType": "uint256",
          "name": "",
          "type": "uint256"
        }
      ],
      "stateMutability": "view",
      "type": "function",
      "constant": true
    },
    {
      "inputs": [
        {
          "internalType": "uint256",
          "name": "_playHouseId",
          "type": "uint256"
        }
      ],
      "name": "startGame",
      "outputs": [],
      "stateMutability": "nonpayable",
      "type": "function"
    },
    {
      "inputs": [
        {
          "internalType": "uint256",
          "name": "_playHouseId",
          "type": "uint256"
        },
        {
          "internalType": "uint256",
          "name": "randomNum",
          "type": "uint256"
        }
      ],
      "name": "approveByOtherPlayer",
      "outputs": [],
      "stateMutability": "nonpayable",
      "type": "function"
    },
    {
      "inputs": [
        {
          "internalType": "uint256",
          "name": "_entryPrice",
          "type": "uint256"
        }
      ],
      "name": "changeEntryPrice",
      "outputs": [],
      "stateMutability": "nonpayable",
      "type": "function"
    },
    {
      "inputs": [
        {
          "internalType": "uint256",
          "name": "_playHouseId",
          "type": "uint256"
        }
      ],
      "name": "leaveGame",
      "outputs": [],
      "stateMutability": "payable",
      "type": "function",
      "payable": true
    },
    {
      "inputs": [
        {
          "internalType": "uint256",
          "name": "_homeId",
          "type": "uint256"
        },
        {
          "internalType": "uint256",
          "name": "_index",
          "type": "uint256"
        }
      ],
      "name": "pickWinner",
      "outputs": [],
      "stateMutability": "payable",
      "type": "function",
      "payable": true
    }
  ],
  "bytecode": "0x60806040523480156200001157600080fd5b5060405162001f4038038062001f408339818101604052810190620000379190620000c6565b33600160006101000a81548173ffffffffffffffffffffffffffffffffffffffff021916908373ffffffffffffffffffffffffffffffffffffffff1602179055508060008190555050620000f8565b600080fd5b6000819050919050565b620000a0816200008b565b8114620000ac57600080fd5b50565b600081519050620000c08162000095565b92915050565b600060208284031215620000df57620000de62000086565b5b6000620000ef84828501620000af565b91505092915050565b611e3880620001086000396000f3fe6080604052600436106101085760003560e01c8063ba7e7cab11610095578063d63fed5111610064578063d63fed5114610329578063e2095c0714610345578063e5ed1d5914610361578063f745adfc1461038a578063fe7da9e9146103b557610108565b8063ba7e7cab14610254578063cd6573f414610291578063ce606ee0146102ba578063d396cc2e146102e557610108565b80633feef58a116100dc5780633feef58a1461018957806369958ab9146101a55780636f9fb98a146101c1578063aba430b6146101ec578063b919bf931461021757610108565b80626dbf901461010d5780630499b79b146101385780633abc4304146101635780633ccfd60b1461017f575b600080fd5b34801561011957600080fd5b506101226103de565b60405161012f9190611667565b60405180910390f35b34801561014457600080fd5b5061014d6103e4565b60405161015a9190611667565b60405180910390f35b61017d60048036038101906101789190611808565b6103ea565b005b6101876105e2565b005b6101a3600480360381019061019e9190611893565b610707565b005b6101bf60048036038101906101ba9190611893565b610a7c565b005b3480156101cd57600080fd5b506101d6610bd6565b6040516101e39190611667565b60405180910390f35b3480156101f857600080fd5b50610201610c38565b60405161020e9190611667565b60405180910390f35b34801561022357600080fd5b5061023e60048036038101906102399190611893565b610c3e565b60405161024b9190611667565b60405180910390f35b34801561026057600080fd5b5061027b60048036038101906102769190611893565b610c5e565b6040516102889190611667565b60405180910390f35b34801561029d57600080fd5b506102b860048036038101906102b391906118c0565b610c7e565b005b3480156102c657600080fd5b506102cf610dcb565b6040516102dc9190611941565b60405180910390f35b3480156102f157600080fd5b5061030c60048036038101906103079190611893565b610df1565b604051610320989796959493929190611ade565b60405180910390f35b610343600480360381019061033e91906118c0565b611042565b005b61035f600480360381019061035a9190611893565b611194565b005b34801561036d57600080fd5b5061038860048036038101906103839190611893565b611448565b005b34801561039657600080fd5b5061039f611541565b6040516103ac9190611667565b60405180910390f35b3480156103c157600080fd5b506103dc60048036038101906103d79190611893565b611547565b005b60055481565b60025481565b600054816103f89190611ba0565b34101561040457600080fd5b60006004600060055481526020019081526020016000209050838160000190805190602001906104359291906115ab565b508281600101908051906020019061044e9291906115ab565b50818160020181905550338160050160016101000a81548173ffffffffffffffffffffffffffffffffffffffff021916908373ffffffffffffffffffffffffffffffffffffffff16021790555060018160050160006101000a81548160ff02191690831515021790555060018160080160003373ffffffffffffffffffffffffffffffffffffffff1673ffffffffffffffffffffffffffffffffffffffff16815260200190815260200160002060006101000a81548160ff021916908315150217905550818160030160008282546105269190611ba0565b9250508190555080600401600081548092919061054290611bf6565b919050555080600701339080600181540180825580915050600190039060005260206000200160009091909190916101000a81548173ffffffffffffffffffffffffffffffffffffffff021916908373ffffffffffffffffffffffffffffffffffffffff160217905550600560008154809291906105bf90611bf6565b9190505550600260008154809291906105d790611bf6565b919050555050505050565b600160009054906101000a900473ffffffffffffffffffffffffffffffffffffffff1673ffffffffffffffffffffffffffffffffffffffff163373ffffffffffffffffffffffffffffffffffffffff161461063c57600080fd5b600160009054906101000a900473ffffffffffffffffffffffffffffffffffffffff1673ffffffffffffffffffffffffffffffffffffffff163373ffffffffffffffffffffffffffffffffffffffff161461069657600080fd5b6000479050600160009054906101000a900473ffffffffffffffffffffffffffffffffffffffff1673ffffffffffffffffffffffffffffffffffffffff166108fc829081150290604051600060405180830381858888f19350505050158015610703573d6000803e3d6000fd5b5050565b60006004600083815260200190815260200160002090508060080160003373ffffffffffffffffffffffffffffffffffffffff1673ffffffffffffffffffffffffffffffffffffffff16815260200190815260200160002060009054906101000a900460ff1661077657600080fd5b8060050160009054906101000a900460ff1661079157600080fd5b60008160080160003373ffffffffffffffffffffffffffffffffffffffff1673ffffffffffffffffffffffffffffffffffffffff16815260200190815260200160002060006101000a81548160ff021916908315150217905550600181600401546107fc9190611c3e565b81600401819055503373ffffffffffffffffffffffffffffffffffffffff168160050160019054906101000a900473ffffffffffffffffffffffffffffffffffffffff1673ffffffffffffffffffffffffffffffffffffffff16036109525760008160070160018154811061087457610873611c72565b5b9060005260206000200160009054906101000a900473ffffffffffffffffffffffffffffffffffffffff169050808260060160006101000a81548173ffffffffffffffffffffffffffffffffffffffff021916908373ffffffffffffffffffffffffffffffffffffffff16021790555060008260050160006101000a81548160ff0219169083151502179055508073ffffffffffffffffffffffffffffffffffffffff166108fc83600301549081150290604051600060405180830381858888f1935050505015801561094b573d6000803e3d6000fd5b5050610a78565b60008160080160003373ffffffffffffffffffffffffffffffffffffffff1673ffffffffffffffffffffffffffffffffffffffff16815260200190815260200160002060006101000a81548160ff0219169083151502179055508060090160003373ffffffffffffffffffffffffffffffffffffffff1673ffffffffffffffffffffffffffffffffffffffff16815260200190815260200160002060009054906101000a900460ff1615610a775760008160090160003373ffffffffffffffffffffffffffffffffffffffff1673ffffffffffffffffffffffffffffffffffffffff16815260200190815260200160002060006101000a81548160ff021916908315150217905550600181600a016000828254610a6f9190611c3e565b925050819055505b5b5050565b3373ffffffffffffffffffffffffffffffffffffffff166004600083815260200190815260200160002060050160019054906101000a900473ffffffffffffffffffffffffffffffffffffffff1673ffffffffffffffffffffffffffffffffffffffff1614610aea57600080fd5b6001600460008381526020019081526020016000206004015414610b0d57600080fd5b6004600082815260200190815260200160002060050160009054906101000a900460ff16610b3a57600080fd5b60006004600083815260200190815260200160002060050160006101000a81548160ff0219169083151502179055503373ffffffffffffffffffffffffffffffffffffffff166108fc6004600084815260200190815260200160002060020154600054610ba79190611ba0565b9081150290604051600060405180830381858888f19350505050158015610bd2573d6000803e3d6000fd5b5050565b6000600160009054906101000a900473ffffffffffffffffffffffffffffffffffffffff1673ffffffffffffffffffffffffffffffffffffffff163373ffffffffffffffffffffffffffffffffffffffff1614610c3257600080fd5b47905090565b60035481565b600060046000838152602001908152602001600020600b01549050919050565b600060046000838152602001908152602001600020600a01549050919050565b60006004600084815260200190815260200160002090508060080160003373ffffffffffffffffffffffffffffffffffffffff1673ffffffffffffffffffffffffffffffffffffffff16815260200190815260200160002060009054906101000a900460ff16610ced57600080fd5b8060090160003373ffffffffffffffffffffffffffffffffffffffff1673ffffffffffffffffffffffffffffffffffffffff16815260200190815260200160002060009054906101000a900460ff1615610d4657600080fd5b60018160090160003373ffffffffffffffffffffffffffffffffffffffff1673ffffffffffffffffffffffffffffffffffffffff16815260200190815260200160002060006101000a81548160ff021916908315150217905550600181600a016000828254610db59190611ba0565b92505081905550610dc68383611042565b505050565b600160009054906101000a900473ffffffffffffffffffffffffffffffffffffffff1681565b6060806000806000806060600080600460008b8152602001908152602001600020905080600001816001018260050160019054906101000a900473ffffffffffffffffffffffffffffffffffffffff1683600301548460050160009054906101000a900460ff168560020154866007018760060160009054906101000a900473ffffffffffffffffffffffffffffffffffffffff16878054610e9290611cd0565b80601f0160208091040260200160405190810160405280929190818152602001828054610ebe90611cd0565b8015610f0b5780601f10610ee057610100808354040283529160200191610f0b565b820191906000526020600020905b815481529060010190602001808311610eee57829003601f168201915b50505050509750868054610f1e90611cd0565b80601f0160208091040260200160405190810160405280929190818152602001828054610f4a90611cd0565b8015610f975780601f10610f6c57610100808354040283529160200191610f97565b820191906000526020600020905b815481529060010190602001808311610f7a57829003601f168201915b505050505096508180548060200260200160405190810160405280929190818152602001828054801561101f57602002820191906000526020600020905b8160009054906101000a900473ffffffffffffffffffffffffffffffffffffffff1673ffffffffffffffffffffffffffffffffffffffff1681526020019060010190808311610fd5575b505050505091509850985098509850985098509850985050919395975091939597565b6000600460008481526020019081526020016000209050600261106484610c5e565b1461106e57600080fd5b600081600701838154811061108657611085611c72565b5b9060005260206000200160009054906101000a900473ffffffffffffffffffffffffffffffffffffffff169050808260060160006101000a81548173ffffffffffffffffffffffffffffffffffffffff021916908373ffffffffffffffffffffffffffffffffffffffff16021790555060008260050160006101000a81548160ff0219169083151502179055506002600081548092919061112690611d01565b91905055506003600081548092919061113e90611bf6565b91905055508073ffffffffffffffffffffffffffffffffffffffff166108fc83600301549081150290604051600060405180830381858888f1935050505015801561118d573d6000803e3d6000fd5b5050505050565b60003390506004600083815260200190815260200160002060050160009054906101000a900460ff166111c657600080fd5b60005460046000848152602001908152602001600020600201546111ea9190611ba0565b341161122b576040517f08c379a000000000000000000000000000000000000000000000000000000000815260040161122290611d76565b60405180910390fd5b6004600083815260200190815260200160002060080160008273ffffffffffffffffffffffffffffffffffffffff1673ffffffffffffffffffffffffffffffffffffffff16815260200190815260200160002060009054906101000a900460ff16156112cc576040517f08c379a00000000000000000000000000000000000000000000000000000000081526004016112c390611de2565b60405180910390fd5b60016004600084815260200190815260200160002060070180549050146112f257600080fd5b60046000838152602001908152602001600020600701339080600181540180825580915050600190039060005260206000200160009091909190916101000a81548173ffffffffffffffffffffffffffffffffffffffff021916908373ffffffffffffffffffffffffffffffffffffffff16021790555060046000838152602001908152602001600020600201546004600084815260200190815260200160002060030160008282546113a59190611ba0565b925050819055506004600083815260200190815260200160002060040160008154809291906113d390611bf6565b919050555060016004600084815260200190815260200160002060080160003373ffffffffffffffffffffffffffffffffffffffff1673ffffffffffffffffffffffffffffffffffffffff16815260200190815260200160002060006101000a81548160ff0219169083151502179055505050565b3373ffffffffffffffffffffffffffffffffffffffff166004600083815260200190815260200160002060050160019054906101000a900473ffffffffffffffffffffffffffffffffffffffff1673ffffffffffffffffffffffffffffffffffffffff16146114b657600080fd5b600160046000838152602001908152602001600020600a018190555060016004600083815260200190815260200160002060090160003373ffffffffffffffffffffffffffffffffffffffff1673ffffffffffffffffffffffffffffffffffffffff16815260200190815260200160002060006101000a81548160ff02191690831515021790555050565b60005481565b600160009054906101000a900473ffffffffffffffffffffffffffffffffffffffff1673ffffffffffffffffffffffffffffffffffffffff163373ffffffffffffffffffffffffffffffffffffffff16146115a157600080fd5b8060008190555050565b8280546115b790611cd0565b90600052602060002090601f0160209004810192826115d95760008555611620565b82601f106115f257805160ff1916838001178555611620565b82800160010185558215611620579182015b8281111561161f578251825591602001919060010190611604565b5b50905061162d9190611631565b5090565b5b8082111561164a576000816000905550600101611632565b5090565b6000819050919050565b6116618161164e565b82525050565b600060208201905061167c6000830184611658565b92915050565b6000604051905090565b600080fd5b600080fd5b600080fd5b600080fd5b6000601f19601f8301169050919050565b7f4e487b7100000000000000000000000000000000000000000000000000000000600052604160045260246000fd5b6116e9826116a0565b810181811067ffffffffffffffff82111715611708576117076116b1565b5b80604052505050565b600061171b611682565b905061172782826116e0565b919050565b600067ffffffffffffffff821115611747576117466116b1565b5b611750826116a0565b9050602081019050919050565b82818337600083830152505050565b600061177f61177a8461172c565b611711565b90508281526020810184848401111561179b5761179a61169b565b5b6117a684828561175d565b509392505050565b600082601f8301126117c3576117c2611696565b5b81356117d384826020860161176c565b91505092915050565b6117e58161164e565b81146117f057600080fd5b50565b600081359050611802816117dc565b92915050565b6000806000606084860312156118215761182061168c565b5b600084013567ffffffffffffffff81111561183f5761183e611691565b5b61184b868287016117ae565b935050602084013567ffffffffffffffff81111561186c5761186b611691565b5b611878868287016117ae565b9250506040611889868287016117f3565b9150509250925092565b6000602082840312156118a9576118a861168c565b5b60006118b7848285016117f3565b91505092915050565b600080604083850312156118d7576118d661168c565b5b60006118e5858286016117f3565b92505060206118f6858286016117f3565b9150509250929050565b600073ffffffffffffffffffffffffffffffffffffffff82169050919050565b600061192b82611900565b9050919050565b61193b81611920565b82525050565b60006020820190506119566000830184611932565b92915050565b600081519050919050565b600082825260208201905092915050565b60005b8381101561199657808201518184015260208101905061197b565b838111156119a5576000848401525b50505050565b60006119b68261195c565b6119c08185611967565b93506119d0818560208601611978565b6119d9816116a0565b840191505092915050565b60006119ef82611900565b9050919050565b6119ff816119e4565b82525050565b60008115159050919050565b611a1a81611a05565b82525050565b600081519050919050565b600082825260208201905092915050565b6000819050602082019050919050565b611a55816119e4565b82525050565b6000611a678383611a4c565b60208301905092915050565b6000602082019050919050565b6000611a8b82611a20565b611a958185611a2b565b9350611aa083611a3c565b8060005b83811015611ad1578151611ab88882611a5b565b9750611ac383611a73565b925050600181019050611aa4565b5085935050505092915050565b6000610100820190508181036000830152611af9818b6119ab565b90508181036020830152611b0d818a6119ab565b9050611b1c60408301896119f6565b611b296060830188611658565b611b366080830187611a11565b611b4360a0830186611658565b81810360c0830152611b558185611a80565b9050611b6460e08301846119f6565b9998505050505050505050565b7f4e487b7100000000000000000000000000000000000000000000000000000000600052601160045260246000fd5b6000611bab8261164e565b9150611bb68361164e565b9250827fffffffffffffffffffffffffffffffffffffffffffffffffffffffffffffffff03821115611beb57611bea611b71565b5b828201905092915050565b6000611c018261164e565b91507fffffffffffffffffffffffffffffffffffffffffffffffffffffffffffffffff8203611c3357611c32611b71565b5b600182019050919050565b6000611c498261164e565b9150611c548361164e565b925082821015611c6757611c66611b71565b5b828203905092915050565b7f4e487b7100000000000000000000000000000000000000000000000000000000600052603260045260246000fd5b7f4e487b7100000000000000000000000000000000000000000000000000000000600052602260045260246000fd5b60006002820490506001821680611ce857607f821691505b602082108103611cfb57611cfa611ca1565b5b50919050565b6000611d0c8261164e565b915060008203611d1f57611d1e611b71565b5b600182039050919050565b7f496e73756666696369656e7420656e7472792070726963650000000000000000600082015250565b6000611d60601883611967565b9150611d6b82611d2a565b602082019050919050565b60006020820190508181036000830152611d8f81611d53565b9050919050565b7f506c6179657220697320616c726561647920696e207468652067616d65000000600082015250565b6000611dcc601d83611967565b9150611dd782611d96565b602082019050919050565b60006020820190508181036000830152611dfb81611dbf565b905091905056fea2646970667358221220723abbc4eea757fff2df7c38c2b8da8e08051cb30d680283a3145c5c2a3b1f5e64736f6c634300080e0033",
  "immutableReferences": {},
  "source": "// SPDX-License-Identifier: GPL-3.0\n// import \"@chainlink/contracts/src/v0.8/interfaces/VRFCoordinatorV2Interface.sol\";\n// import \"@chainlink/contracts/src/v0.8/VRFConsumerBaseV2.sol\";\n\npragma solidity >=0.7.0 <0.9.0;\n\n/**\n * @title Storage\n * @dev Store & retrieve value in a variable\n * @custom:dev-run-script ./scripts/deploy_with_ethers.ts\n */\n\n\n\ncontract GamePlayTest  {\n\n    uint public entryPrice;\n    address  payable public contractOwner;\n    uint public active_houses; \n    uint public completed_houses; \n    \n\n\n  \n\n    struct PlayHouse{\n        string housename;\n        string gameDescription;\n        uint bettingPrice;\n        uint totalPool;\n        uint totalEntries;\n        bool isActive;\n        address creator;\n        address winner;\n        address[] entries;\n        mapping(address => bool)  isInGame;\n        mapping (address => bool) hasConfirmedToProceed;\n        uint totalApprovals;\n        uint gasUsed;\n    }\n    //here house id will map to individual playHouse\n    mapping(uint => PlayHouse) playhouses;\n    uint public totalPlayHouses; \n   \n\n    modifier only_owner(uint playHouseId){\n        require( playhouses[playHouseId].creator==msg.sender);\n        _;\n    }\n    modifier only_contract_creator(){\n        require( msg.sender==contractOwner);\n        _;\n    }\n\n    constructor(uint _entryPrice){\n        contractOwner = payable(msg.sender);\n        entryPrice = _entryPrice;\n    }\n\n    function getApprovalCount(uint _hid) public view returns(uint){\n      return  playhouses[_hid].totalApprovals;\n    }\n    \n\n    function createPlayHouse(string memory _name , string memory _description ,uint _bettingPrice) public payable{\n            \n            \n            require(msg.value>=(_bettingPrice+entryPrice));\n\n\n            PlayHouse storage p1 =  playhouses[totalPlayHouses];\n            p1.housename = _name;\n            p1.gameDescription = _description;\n            p1.bettingPrice = _bettingPrice;\n            p1.creator = msg.sender;\n            p1.isActive = true;\n            p1.isInGame[msg.sender] = true; \n            p1.totalPool += _bettingPrice; \n            p1.totalEntries++;\n            p1.entries.push(msg.sender);\n            totalPlayHouses++;\n            active_houses++;\n          \n    }\n\n\n    \n\n    function getPlayHouseDatas(uint playHouseId) public view returns(\n        string memory _name ,\n        string memory _description ,\n        address _creator ,\n        uint _poolPrice,\n        bool isActive,\n        uint bettingPrice,\n        address[] memory players,\n        address _winner\n        ){\n          PlayHouse storage p5 =  playhouses[playHouseId];\n        return(\n        p5.housename,\n        p5.gameDescription,\n        p5.creator,\n        p5.totalPool,\n       p5.isActive, \n       p5.bettingPrice, \n       p5.entries,\n       p5.winner\n       );\n\n    }\n\n    function entry(uint _playHouseId) public payable{\n\n        address _newPlayer = msg.sender;\n            \n            require(playhouses[_playHouseId].isActive);\n            require(msg.value >(playhouses[_playHouseId].bettingPrice+entryPrice),'Insufficient entry price');\n            require( !playhouses[_playHouseId].isInGame[_newPlayer],'Player is already in the game');\n            require(playhouses[_playHouseId].entries.length==1 );\n\n               playhouses[_playHouseId].entries.push(msg.sender);\n        playhouses[_playHouseId].totalPool += playhouses[_playHouseId].bettingPrice; \n        playhouses[_playHouseId].totalEntries++;\n        playhouses[_playHouseId].isInGame[msg.sender]=true;\n\n\n    }\n\n    function withdraw() public only_contract_creator payable only_contract_creator{\n       uint currentBalance= address(this).balance;\n        payable(contractOwner).transfer(currentBalance);\n    } \n    \n    function getContractBalance() public only_contract_creator view returns(uint) {\n        return (address(this).balance);\n    } \n\n    function cancelGame(uint _playhouseId) public payable{\n        require (playhouses[_playhouseId].creator == msg.sender);\n        require(playhouses[_playhouseId].totalEntries==1);\n        require(playhouses[_playhouseId].isActive);\n        playhouses[_playhouseId].isActive = false;\n        payable(msg.sender).transfer(entryPrice+playhouses[_playhouseId].bettingPrice);\n        \n    }\n\n    function getGasUsed(uint _playHouseId) public view returns(uint){\n        return  playhouses[_playHouseId].gasUsed;\n    }\n\n    function startGame(uint _playHouseId) public {\n         require (playhouses[_playHouseId].creator == msg.sender);\n         playhouses[_playHouseId].totalApprovals = 1;\n         playhouses[_playHouseId].hasConfirmedToProceed[msg.sender] = true;\n    }\n   \n\n    function approveByOtherPlayer(uint _playHouseId,uint randomNum) public{\n        PlayHouse storage p3 =  playhouses[_playHouseId];\n        require(p3.isInGame[msg.sender]);\n        require(!p3.hasConfirmedToProceed[msg.sender]);\n         p3.hasConfirmedToProceed[msg.sender] = true;\n        p3.totalApprovals +=1;\n\n        pickWinner(_playHouseId,randomNum);\n\n         \n    }\n\n    function changeEntryPrice(uint _entryPrice) public only_contract_creator{\n            entryPrice = _entryPrice;\n    }\n    function leaveGame(uint _playHouseId) public payable{\n        \n        PlayHouse storage p2 =  playhouses[_playHouseId];\n        require(p2.isInGame[msg.sender]);\n        \n        require(p2.isActive);\n        p2.isInGame[msg.sender] = false;\n        p2.totalEntries = p2.totalEntries-1;\n        if(p2.creator==msg.sender){\n            address _secondPerson = p2.entries[1]; \n            p2.winner=_secondPerson;\n            p2.isActive = false;\n            payable(_secondPerson).transfer(p2.totalPool);\n        }else{\n            p2.isInGame[msg.sender]=false;\n            \n            //Here, for the coin flip, we give out the result almost instantly,, \n            //but for others game, user may leave game before its completion... soooo\n\n            if(p2.hasConfirmedToProceed[msg.sender]){\n                p2.hasConfirmedToProceed[msg.sender] = false;\n                p2.totalApprovals -=1;\n\n            }\n\n        }\n\n    }\n\n    function pickWinner (uint _homeId,uint _index) public payable{\n\n       PlayHouse storage p4 =  playhouses[_homeId];\n       require(getApprovalCount(_homeId)==2);\n       address _winnerAddress = p4.entries[_index];\n       p4.winner = _winnerAddress;\n       p4.isActive = false;\n       active_houses--;\n       completed_houses++;\n       payable(_winnerAddress).transfer(p4.totalPool);\n    }\n\n\n}",
  "sourcePath": "C:\\Users\\AnJaN\\Desktop\\others____\\courses\\solidity\\Gameplay\\truffle\\contracts\\GamePlay.sol",
  "compiler": {
    "name": "solc",
    "version": "0.8.14+commit.80d49f37.Emscripten.clang"
  },
  "schemaVersion": "3.4.4",
  "updatedAt": "2022-07-02T09:37:13.643Z",
  "networkType": "ethereum",
  "devdoc": {
    "custom:dev-run-script": "./scripts/deploy_with_ethers.ts",
    "details": "Store & retrieve value in a variable",
    "kind": "dev",
    "methods": {},
    "title": "Storage",
    "version": 1
  },
  "userdoc": {
    "kind": "user",
    "methods": {},
    "version": 1
  }
}